:020000040000FA
:100000000C9434000C9451000C9451000C94510049
:100010000C9451000C9451000C9451000C9451001C
:100020000C9451000C9441010C9451000C940E015D
:100030000C9451000C9451000C9451000C945100FC
:100040000C94CB010C9451000C9451000C94510071
:100050000C9451000C9451000C9451000C945100DC
:100060000C9451000C94510011241FBECFEFD8E026
:10007000DEBFCDBF11E0A0E0B1E0EAE4F6E002C0EF
:1000800005900D92AC32B107D9F721E0ACE2B1E0B6
:1000900001C01D92A933B207E1F70E942B020C9414
:1000A00023030C940000CF93DF93EC016AE070E02F
:1000B0000E940303CB016CE370E00E940303282F2E
:1000C000CE0168E572E00E940303DB01E62F81E0C8
:1000D0006A300CF080E080932C01FAE0822F6F2FC1
:1000E0000E94F502482F880F550B292F990F330BCB
:1000F000EA30C4F4A0932F01B09330015093320141
:10010000409331013093340120933301CE016AE0F2
:1001100070E00E9403039093360180933501DF91D4
:10012000CF9108958E2F6F2F0E94F502682F880FB0
:10013000770B7093300160932F01892F990F990BE2
:1001400090933201809331015093340140933301F5
:100150003093360120933501E2CFF999FECF12BCDE
:1001600081BDF89A80B50895F999FECF12BC81BD82
:1001700060BDFA9AF99A08950F931F93CF93DF9376
:1001800026B130E020953095082E02C03595279590
:100190000A94E2F720FF3DC0C82F609302018091CE
:1001A0003701909138010E94530083E08093B100A1
:1001B00021E030E002C0220F331FCA95E2F786B17A
:1001C00090E08095909582239323892BC1F710921C
:1001D0002E0110922D011092B10080912C016BE044
:1001E00081116AE0F89490E080E00E94B400789475
:1001F0000FE211E0C1E0D0E0F80160810E5F1F4F17
:10020000F894CE010E94B40078942196C530D105AF
:1002100099F7DF91CF911F910F9108951F920F923F
:100220000FB60F9211242F933F934F935F936F93C9
:100230007F938F939F93AF93BF93EF93FF9380919F
:100240003701909138010097A1F4439A10928100F0
:10025000FF91EF91BF91AF919F918F917F916F919E
:100260005F914F913F912F910F900FBE0F901F9074
:100270001895019790933801809337010E9453009D
:10028000E7CF1F920F920FB60F9211242F933F9337
:100290004F935F936F937F938F939F93AF93BF938E
:1002A000EF93FF9320912D0130912E012F5F3F4F4F
:1002B00030932E0120932D0140910201E0913701EE
:1002C000F09138014F3F11F43097E1F08091000137
:1002D00090910101E817F9075CF44F3F49F410923F
:1002E00038011092370190E080E00E9453000AC06C
:1002F00021303105C1F0C90168EC70E00E940303B0
:10030000892B39F1FF91EF91BF91AF919F918F911F
:100310007F916F915F914F913F912F910F900FBE01
:100320000F901F9018958AE090E0909301018093C0
:10033000000120910001309101014203C001439F5F
:10034000900D11248E0F9F1F9093380180933701D9
:10035000CCCF283E83E0380719F482E390E0E5CF64
:10036000203486E0380719F484E690E0DECF2036AA
:1003700089E0380719F488E592E0D7CF20388CE07F
:10038000380719F488EB9BE0D0CF283D3E4089F632
:1003900080E797E1CACF1F920F920FB60F921124F8
:1003A0002F933F934F935F936F937F938F939F937D
:1003B000AF93BF93EF93FF93AFE2B1E090E080E0A3
:1003C00041E050E02BB123702BB99C012E5F3F4FD1
:1003D000BA0102C0660F771F2A95E2F79B012095AC
:1003E0002C7325B92BB1ED91FC911197EE0FFF1FE6
:1003F000E95EFE4F3081232B2BB925B1ED91FC91A5
:100400001197EE0FFF1FED5FFE4F3081232B25B9B3
:1004100020912C01222331F09C012D7F232B29F4E4
:10042000299A03C081309105D9F301961296843040
:10043000910541F6FF91EF91BF91AF919F918F91FF
:100440007F916F915F914F913F912F910F900FBED0
:100450000F901F9018958CEF8AB98FE384B988E0CC
:1004600087B987E088B9789481E085BD16BC809112
:100470006E00816080936E0080916F008260809337
:100480006F0010928500109284008AE698E19093A4
:100490008900809388001092B20080917000816082
:1004A00080937000F89490E080E00E94AD00182FD7
:1004B00078948FE2E82E81E0F82EC1E0D0E0F89445
:1004C000CE010E94AD00789490E0F7018193919362
:1004D0007F012196C530D10591F710923801109215
:1004E00037011A3009F050C02091330130913401A6
:1004F000129FC001139F900D11242091350130915E
:100500003601820F931F409131015091320164E610
:10051000649F9001659F300D1124820F931F60919D
:100520002F017091300148E552E0649F9001659F72
:10053000300D749F300D1124820F931F909338015A
:100540008093370180913701909138010E945300C8
:10055000CBE061E080E00E94BC006FEF81E00E9490
:10056000BC003299F6CF8091810081113BC080910F
:10057000370190913801181619061CF44398C0935E
:100580008100329BFECFE5CF1B30E1F62091350193
:10059000309136014AE0429FC001439F900D1124E3
:1005A000409133015091340164E6649F9001659F4E
:1005B000300D1124820F931F60913101709132012F
:1005C00048E552E0649F9001659F300D749F300DA7
:1005D0001124820F931F60912F017091300140E729
:1005E00057E1A3CF10928100CCCF87FB082E0626BF
:1005F00087FD819567FD61950E9417030EF4919523
:1006000007FC81950895AA1BBB1B51E107C0AA1FD7
:10061000BB1FA617B70710F0A61BB70B881F991FA3
:100620005A95A9F780959095BC01CD010895991B25
:1006300079E004C0991F961708F0961B881F7A95D9
:10064000C9F780950895F894FFCF0A0001000000D3
:100650000001000100010001000100000001000193
:1006600000FC0018006C003C009800B400F4001C72
:0606700000FC00BC0000CC
:107800000C94343C0C94513C0C94513C0C94513CE1
:107810000C94513C0C94513C0C94513C0C94513CB4
:107820000C94513C0C94513C0C94513C0C94513CA4
:107830000C94513C0C94513C0C94513C0C94513C94
:107840000C94513C0C94513C0C94513C0C94513C84
:107850000C94513C0C94513C0C94513C0C94513C74
:107860000C94513C0C94513C11241FBECFEFD8E036
:10787000DEBFCDBF11E0A0E0B1E0ECE9FFE702C060
:1078800005900D92A230B107D9F712E0A2E0B1E065
:1078900001C01D92AD30B107E1F70E942D3D0C945F
:1078A000CC3F0C94003C982F959595959595959582
:1078B000905D8F708A307CF0282F295A8091C0000B
:1078C00085FFFCCF9093C6008091C00085FFFCCF60
:1078D0002093C6000895282F205DF0CF982F809127
:1078E000C00085FFFCCF9093C6000895EF92FF92F1
:1078F0000F931F93EE24FF2487018091C00087FD22
:1079000017C00894E11CF11C011D111D81E4E8164B
:1079100082E4F8068FE0080780E0180770F3E09132
:107920000401F091050109958091C00087FFE9CF1E
:107930008091C6001F910F91FF90EF9008950E94D3
:10794000763C982F8091C00085FFFCCF9093C600B5
:1079500091362CF490330CF09053892F089597555D
:10796000892F08951F930E949F3C182F0E949F3CCF
:107970001295107F810F1F9108951F93182F882350
:1079800021F00E94763C1150E1F71F9108951F935A
:10799000182F0E94763C803249F0809103018F5F5E
:1079A000809303018530C1F01F9108958091C0003C
:1079B00085FFFCCF84E18093C6008091C00085FFE5
:1079C000FCCF1093C6008091C00085FFFCCF80E102
:1079D0008093C6001F910895E0910401F091050184
:1079E00009951F9108950E94763C803241F0809164
:1079F00003018F5F80930301853081F008958091AA
:107A0000C00085FFFCCF84E18093C6008091C00058
:107A100085FFFCCF80E18093C6000895E0910401CA
:107A2000F09105010995089540E951E08823A1F0FE
:107A30002D9A28EE33E0FA013197F1F721503040CA
:107A4000D1F72D9828EE33E0FA013197F1F7215064
:107A50003040D1F7815061F708953F924F925F9285
:107A60006F927F928F929F92AF92BF92CF92DF924E
:107A7000EF92FF920F931F93CF93DF93000080E16B
:107A80008093C4001092C50088E18093C10086E015
:107A90008093C2005098589A259A81E00E94143D24
:107AA00024E1F22E9EE1E92E85E9D82E0FE0C02ECA
:107AB00010E1B12EAA24A394B1E49B2EA6E58A2E50
:107AC000F2E57F2EE0E26E2E79E4572E63E5462E36
:107AD00050E5352E0E94763C8033B1F18133B9F107
:107AE000803409F46FC0813409F476C0823409F41B
:107AF00085C0853409F488C0803531F1823521F1A3
:107B0000813511F1853509F485C0863509F48DC0BC
:107B1000843609F496C0843709F403C1853709F423
:107B200072C1863709F466C0809103018F5F80932C
:107B30000301853079F6E0910401F0910501099582
:107B40000E94763C803351F60E94F33CC3CF0E94E2
:107B5000763C803249F78091C00085FFFCCFF092DF
:107B6000C6008091C00085FFFCCF9092C600809136
:107B7000C00085FFFCCF8092C6008091C00085FFC9
:107B8000FCCF7092C6008091C00085FFFCCF609250
:107B9000C6008091C00085FFFCCF5092C600809146
:107BA000C00085FFFCCF4092C6008091C00085FFD9
:107BB000FCCF3092C6008091C00085FFFCCFB09210
:107BC000C60088CF0E94763C863808F4BDCF0E945C
:107BD000763C0E94F33C7ECF0E94763C803809F4CC
:107BE0009CC0813809F40BC1823809F43CC1883942
:107BF00009F48FC080E00E94C73C6CCF84E10E94F2
:107C0000BD3C0E94F33C66CF85E00E94BD3C0E94D3
:107C1000F33C60CF0E94763C809306010E94763C44
:107C2000809307010E94F33C55CF0E94763C80333D
:107C300009F41DC183E00E94BD3C80E00E94C73C66
:107C400049CF0E94763C809309020E94763C809343
:107C5000080280910C028E7F80930C020E94763C79
:107C6000853409F415C18091080290910902892B8D
:107C700089F000E010E00E94763CF801E85FFE4FDA
:107C800080830F5F1F4F80910802909109020817AF
:107C9000190788F30E94763C803209F045CF809125
:107CA0000C0280FF01C16091060170910701660F0F
:107CB000771F7093070160930601A0910802B091AD
:107CC00009021097C9F0E8E0F1E09B01AD014E0F09
:107CD0005F1FF999FECF32BD21BD819180BDFA9A17
:107CE000F99A2F5F3F4FE417F50799F76A0F7B1F4B
:107CF00070930701609306018091C00085FFFCCF5F
:107D0000F092C6008091C00085FFFCCFB092C60003
:107D1000E1CE83E00E94C73CDDCE82E00E94C73CFA
:107D2000D9CE0E94763C809309020E94763C8093D3
:107D300008028091060190910701880F991F909386
:107D40000701809306010E94763C853409F4A6C0A1
:107D500080910C028E7F80930C020E94763C8032D0
:107D600009F0B8CE8091C00085FFFCCFF092C6002C
:107D7000609108027091090261157105B9F140E046
:107D800050E080910C02A82FA170B82FB27011C0E2
:107D9000BB2309F45CC0E0910601F0910701319624
:107DA000F0930701E09306014F5F5F4F46175707B7
:107DB000E8F4AA2369F3F999FECF209106013091E6
:107DC000070132BD21BDF89A90B58091C00085FFB2
:107DD000FCCF9093C6002F5F3F4F30930701209355
:107DE00006014F5F5F4F4617570718F38091C00099
:107DF00085FDE5CE8091C00085FFF8CFE0CE81E023
:107E00000E94C73C67CE0E94763C803209F08CCE3F
:107E10008091C00085FFFCCFF092C6008091C00029
:107E200085FFFCCFE092C6008091C00085FFFCCFAB
:107E3000D092C6008091C00085FFFCCFC092C600E2
:107E40008091C00085FFFCCFB092C60043CEE09188
:107E50000601F091070194918091C00085FFFCCF4D
:107E60009093C6009CCF80E10E94C73C33CE0E9415
:107E7000763C0E94763C182F0E94763C112309F430
:107E800083C0113009F484C08FE00E94C73C22CE29
:107E900080910C02816080930C02E5CE80910C02EF
:107EA000816080930C0259CF809107018823880F4D
:107EB000880B8A2180930B02809106019091070123
:107EC000880F991F90930701809306018091080203
:107ED00080FF09C080910802909109020196909359
:107EE000090280930802F894F999FECF1127E091D6
:107EF0000601F0910701C8E0D1E08091080290915D
:107F00000902103091F40091570001700130D9F34B
:107F100003E000935700E89500915700017001308D
:107F2000D9F301E100935700E89509901990009169
:107F3000570001700130D9F301E000935700E89534
:107F40001395103498F011270091570001700130FB
:107F5000D9F305E000935700E895009157000170B0
:107F60000130D9F301E100935700E895329602976A
:107F700009F0C7CF103011F00296E5CF112480919F
:107F8000C00085FFB9CEBCCE8EE10E94C73CA2CD19
:0E7F900085E90E94C73C9ECDF894FFCF80008B
:00000001FF
