:100000000C9434000C9451000C9451000C94510049
:100010000C9451000C9451000C9451000C9451001C
:100020000C9451000C9441010C9451000C940E015D
:100030000C9451000C9451000C9451000C945100FC
:100040000C94CB010C9451000C9451000C94510071
:100050000C9451000C9451000C9451000C945100DC
:100060000C9451000C94510011241FBECFEFD8E026
:10007000DEBFCDBF11E0A0E0B1E0EAE4F6E002C0EF
:1000800005900D92AC32B107D9F721E0ACE2B1E0B6
:1000900001C01D92A933B207E1F70E942B020C9414
:1000A00023030C940000CF93DF93EC016AE070E02F
:1000B0000E940303CB016CE370E00E940303282F2E
:1000C000CE0168E572E00E940303DB01E62F81E0C8
:1000D0006A300CF080E080932C01FAE0822F6F2FC1
:1000E0000E94F502482F880F550B292F990F330BCB
:1000F000EA30C4F4A0932F01B09330015093320141
:10010000409331013093340120933301CE016AE0F2
:1001100070E00E9403039093360180933501DF91D4
:10012000CF9108958E2F6F2F0E94F502682F880FB0
:10013000770B7093300160932F01892F990F990BE2
:1001400090933201809331015093340140933301F5
:100150003093360120933501E2CFF999FECF12BCDE
:1001600081BDF89A80B50895F999FECF12BC81BD82
:1001700060BDFA9AF99A08950F931F93CF93DF9376
:1001800026B130E020953095082E02C03595279590
:100190000A94E2F720FF3DC0C82F609302018091CE
:1001A0003701909138010E94530083E08093B100A1
:1001B00021E030E002C0220F331FCA95E2F786B17A
:1001C00090E08095909582239323892BC1F710921C
:1001D0002E0110922D011092B10080912C016BE044
:1001E00081116AE0F89490E080E00E94B400789475
:1001F0000FE211E0C1E0D0E0F80160810E5F1F4F17
:10020000F894CE010E94B40078942196C530D105AF
:1002100099F7DF91CF911F910F9108951F920F923F
:100220000FB60F9211242F933F934F935F936F93C9
:100230007F938F939F93AF93BF93EF93FF9380919F
:100240003701909138010097A1F4439A10928100F0
:10025000FF91EF91BF91AF919F918F917F916F919E
:100260005F914F913F912F910F900FBE0F901F9074
:100270001895019790933801809337010E9453009D
:10028000E7CF1F920F920FB60F9211242F933F9337
:100290004F935F936F937F938F939F93AF93BF938E
:1002A000EF93FF9320912D0130912E012F5F3F4F4F
:1002B00030932E0120932D0140910201E0913701EE
:1002C000F09138014F3F11F43097E1F08091000137
:1002D00090910101E817F9075CF44F3F49F410923F
:1002E00038011092370190E080E00E9453000AC06C
:1002F00021303105C1F0C90168EC70E00E940303B0
:10030000892B39F1FF91EF91BF91AF919F918F911F
:100310007F916F915F914F913F912F910F900FBE01
:100320000F901F9018958AE090E0909301018093C0
:10033000000120910001309101014203C001439F5F
:10034000900D11248E0F9F1F9093380180933701D9
:10035000CCCF283E83E0380719F482E390E0E5CF64
:10036000203486E0380719F484E690E0DECF2036AA
:1003700089E0380719F488E592E0D7CF20388CE07F
:10038000380719F488EB9BE0D0CF283D3E4089F632
:1003900080E797E1CACF1F920F920FB60F921124F8
:1003A0002F933F934F935F936F937F938F939F937D
:1003B000AF93BF93EF93FF93AFE2B1E090E080E0A3
:1003C00041E050E02BB123702BB99C012E5F3F4FD1
:1003D000BA0102C0660F771F2A95E2F79B012095AC
:1003E0002C7325B92BB1ED91FC911197EE0FFF1FE6
:1003F000E95EFE4F3081232B2BB925B1ED91FC91A5
:100400001197EE0FFF1FED5FFE4F3081232B25B9B3
:1004100020912C01222331F09C012D7F232B29F4E4
:10042000299A03C081309105D9F301961296843040
:10043000910541F6FF91EF91BF91AF919F918F91FF
:100440007F916F915F914F913F912F910F900FBED0
:100450000F901F9018958CEF8AB98FE384B988E0CC
:1004600087B987E088B9789481E085BD16BC809112
:100470006E00816080936E0080916F008260809337
:100480006F0010928500109284008AE698E19093A4
:100490008900809388001092B20080917000816082
:1004A00080937000F89490E080E00E94AD00182FD7
:1004B00078948FE2E82E81E0F82EC1E0D0E0F89445
:1004C000CE010E94AD00789490E0F7018193919362
:1004D0007F012196C530D10591F710923801109215
:1004E00037011A3009F050C02091330130913401A6
:1004F000129FC001139F900D11242091350130915E
:100500003601820F931F409131015091320164E610
:10051000649F9001659F300D1124820F931F60919D
:100520002F017091300148E552E0649F9001659F72
:10053000300D749F300D1124820F931F909338015A
:100540008093370180913701909138010E945300C8
:10055000CBE061E080E00E94BC006FEF81E00E9490
:10056000BC003299F6CF8091810081113BC080910F
:10057000370190913801181619061CF44398C0935E
:100580008100329BFECFE5CF1B30E1F62091350193
:10059000309136014AE0429FC001439F900D1124E3
:1005A000409133015091340164E6649F9001659F4E
:1005B000300D1124820F931F60913101709132012F
:1005C00048E552E0649F9001659F300D749F300DA7
:1005D0001124820F931F60912F017091300140E729
:1005E00057E1A3CF10928100CCCF87FB082E0626BF
:1005F00087FD819567FD61950E9417030EF4919523
:1006000007FC81950895AA1BBB1B51E107C0AA1FD7
:10061000BB1FA617B70710F0A61BB70B881F991FA3
:100620005A95A9F780959095BC01CD010895991B25
:1006300079E004C0991F961708F0961B881F7A95D9
:0A064000C9F780950895F894FFCFE4
:10064A000A00010000000001000100010001000190
:10065A0000000001000100FC0018006C003C00983A
:0C066A0000B400F4001C00FC00BC000008
:00000001FF
